{
  "address": "0x5FbDB2315678afecb367f032d93F642f64180aa3",
  "abi": [
    {
      "inputs": [],
      "stateMutability": "nonpayable",
      "type": "constructor"
    },
    {
      "inputs": [],
      "name": "becomePoller",
      "outputs": [],
      "stateMutability": "nonpayable",
      "type": "function"
    },
    {
      "inputs": [
        {
          "internalType": "string",
          "name": "_idea",
          "type": "string"
        }
      ],
      "name": "createPoll",
      "outputs": [],
      "stateMutability": "nonpayable",
      "type": "function"
    },
    {
      "inputs": [],
      "name": "ez",
      "outputs": [
        {
          "internalType": "uint256",
          "name": "",
          "type": "uint256"
        }
      ],
      "stateMutability": "pure",
      "type": "function"
    },
    {
      "inputs": [
        {
          "internalType": "address",
          "name": "",
          "type": "address"
        }
      ],
      "name": "pollers",
      "outputs": [
        {
          "internalType": "address",
          "name": "pollerAddress",
          "type": "address"
        }
      ],
      "stateMutability": "view",
      "type": "function"
    },
    {
      "inputs": [
        {
          "internalType": "string",
          "name": "",
          "type": "string"
        }
      ],
      "name": "polls",
      "outputs": [
        {
          "internalType": "address",
          "name": "pollCreator",
          "type": "address"
        },
        {
          "internalType": "uint256",
          "name": "votes",
          "type": "uint256"
        },
        {
          "internalType": "string",
          "name": "idea",
          "type": "string"
        },
        {
          "internalType": "uint256",
          "name": "pollID",
          "type": "uint256"
        }
      ],
      "stateMutability": "view",
      "type": "function"
    },
    {
      "inputs": [
        {
          "internalType": "uint256",
          "name": "",
          "type": "uint256"
        }
      ],
      "name": "pollsArray",
      "outputs": [
        {
          "internalType": "address",
          "name": "pollCreator",
          "type": "address"
        },
        {
          "internalType": "uint256",
          "name": "votes",
          "type": "uint256"
        },
        {
          "internalType": "string",
          "name": "idea",
          "type": "string"
        },
        {
          "internalType": "uint256",
          "name": "pollID",
          "type": "uint256"
        }
      ],
      "stateMutability": "view",
      "type": "function"
    },
    {
      "inputs": [
        {
          "internalType": "string",
          "name": "_idea",
          "type": "string"
        }
      ],
      "name": "vote",
      "outputs": [],
      "stateMutability": "nonpayable",
      "type": "function"
    },
    {
      "inputs": [
        {
          "internalType": "address",
          "name": "",
          "type": "address"
        }
      ],
      "name": "voters",
      "outputs": [
        {
          "internalType": "address",
          "name": "voterAddress",
          "type": "address"
        },
        {
          "internalType": "uint256",
          "name": "timesVoted",
          "type": "uint256"
        }
      ],
      "stateMutability": "view",
      "type": "function"
    }
  ],
  "transactionHash": "0xbb0c1610b83df0328b37e7ecf3894dc189114616deda7d6ca61a18f502a96d28",
  "args": [],
  "numDeployments": 1,
  "solcInputHash": "282e9468ca78fb4e846d362a5a388b52",
  "bytecode": "0x608060405234801561001057600080fd5b50600060405180604001604052803373ffffffffffffffffffffffffffffffffffffffff168152602001600081525090508060036000836000015173ffffffffffffffffffffffffffffffffffffffff1673ffffffffffffffffffffffffffffffffffffffff16815260200190815260200160002060008201518160000160006101000a81548173ffffffffffffffffffffffffffffffffffffffff021916908373ffffffffffffffffffffffffffffffffffffffff160217905550602082015181600101559050505061112e806100e96000396000f3fe608060405234801561001057600080fd5b50600436106100885760003560e01c80638058316a1161005b5780638058316a14610116578063a3ec138d14610149578063aed58f4f1461017a578063fc36e15b1461019857610088565b80634534b99e1461008d5780635b6d7233146100c057806368cced9d146100ca57806374a9ced9146100fa575b600080fd5b6100a760048036038101906100a29190610a5e565b6101b4565b6040516100b79493929190610b74565b60405180910390f35b6100c861029c565b005b6100e460048036038101906100df9190610bec565b610427565b6040516100f19190610c19565b60405180910390f35b610114600480360381019061010f9190610d69565b610465565b005b610130600480360381019061012b9190610d69565b6106be565b6040516101409493929190610b74565b60405180910390f35b610163600480360381019061015e9190610bec565b6107ac565b604051610171929190610db2565b60405180910390f35b6101826107f0565b60405161018f9190610ddb565b60405180910390f35b6101b260048036038101906101ad9190610d69565b6107f9565b005b600081815481106101c457600080fd5b90600052602060002090600402016000915090508060000160009054906101000a900473ffffffffffffffffffffffffffffffffffffffff169080600101549080600201805461021390610e25565b80601f016020809104026020016040519081016040528092919081815260200182805461023f90610e25565b801561028c5780601f106102615761010080835404028352916020019161028c565b820191906000526020600020905b81548152906001019060200180831161026f57829003601f168201915b5050505050908060030154905084565b3373ffffffffffffffffffffffffffffffffffffffff16600260003373ffffffffffffffffffffffffffffffffffffffff1673ffffffffffffffffffffffffffffffffffffffff16815260200190815260200160002060000160009054906101000a900473ffffffffffffffffffffffffffffffffffffffff1673ffffffffffffffffffffffffffffffffffffffff16141561036d576040517f08c379a000000000000000000000000000000000000000000000000000000000815260040161036490610ea3565b60405180910390fd5b600060405180602001604052803373ffffffffffffffffffffffffffffffffffffffff1681525090508060026000836000015173ffffffffffffffffffffffffffffffffffffffff1673ffffffffffffffffffffffffffffffffffffffff16815260200190815260200160002060008201518160000160006101000a81548173ffffffffffffffffffffffffffffffffffffffff021916908373ffffffffffffffffffffffffffffffffffffffff16021790555090505050565b60026020528060005260406000206000915090508060000160009054906101000a900473ffffffffffffffffffffffffffffffffffffffff16905081565b3373ffffffffffffffffffffffffffffffffffffffff16600260003373ffffffffffffffffffffffffffffffffffffffff1673ffffffffffffffffffffffffffffffffffffffff16815260200190815260200160002060000160009054906101000a900473ffffffffffffffffffffffffffffffffffffffff1673ffffffffffffffffffffffffffffffffffffffff1614610535576040517f08c379a000000000000000000000000000000000000000000000000000000000815260040161052c90610f35565b60405180910390fd5b600060405180608001604052803373ffffffffffffffffffffffffffffffffffffffff168152602001600081526020018381526020016000805490508152509050600081908060018154018082558091505060019003906000526020600020906004020160009091909190915060008201518160000160006101000a81548173ffffffffffffffffffffffffffffffffffffffff021916908373ffffffffffffffffffffffffffffffffffffffff16021790555060208201518160010155604082015181600201908051906020019061060f929190610971565b5060608201518160030155505080600182604001516040516106319190610f91565b908152602001604051809103902060008201518160000160006101000a81548173ffffffffffffffffffffffffffffffffffffffff021916908373ffffffffffffffffffffffffffffffffffffffff1602179055506020820151816001015560408201518160020190805190602001906106ac929190610971565b50606082015181600301559050505050565b6001818051602081018201805184825260208301602085012081835280955050505050506000915090508060000160009054906101000a900473ffffffffffffffffffffffffffffffffffffffff169080600101549080600201805461072390610e25565b80601f016020809104026020016040519081016040528092919081815260200182805461074f90610e25565b801561079c5780601f106107715761010080835404028352916020019161079c565b820191906000526020600020905b81548152906001019060200180831161077f57829003601f168201915b5050505050908060030154905084565b60036020528060005260406000206000915090508060000160009054906101000a900473ffffffffffffffffffffffffffffffffffffffff16908060010154905082565b60006005905090565b600060018260405161080b9190610f91565b908152602001604051809103902090506000600360003373ffffffffffffffffffffffffffffffffffffffff1673ffffffffffffffffffffffffffffffffffffffff16815260200190815260200160002090503373ffffffffffffffffffffffffffffffffffffffff168260000160009054906101000a900473ffffffffffffffffffffffffffffffffffffffff1673ffffffffffffffffffffffffffffffffffffffff1614156108f1576040517f08c379a00000000000000000000000000000000000000000000000000000000081526004016108e890610ff4565b60405180910390fd5b6000816001015414610938576040517f08c379a000000000000000000000000000000000000000000000000000000000815260040161092f90611060565b60405180910390fd5b81600101600081548092919061094d906110af565b9190505550806001016000815480929190610967906110af565b9190505550505050565b82805461097d90610e25565b90600052602060002090601f01602090048101928261099f57600085556109e6565b82601f106109b857805160ff19168380011785556109e6565b828001600101855582156109e6579182015b828111156109e55782518255916020019190600101906109ca565b5b5090506109f391906109f7565b5090565b5b80821115610a105760008160009055506001016109f8565b5090565b6000604051905090565b600080fd5b600080fd5b6000819050919050565b610a3b81610a28565b8114610a4657600080fd5b50565b600081359050610a5881610a32565b92915050565b600060208284031215610a7457610a73610a1e565b5b6000610a8284828501610a49565b91505092915050565b600073ffffffffffffffffffffffffffffffffffffffff82169050919050565b6000610ab682610a8b565b9050919050565b610ac681610aab565b82525050565b610ad581610a28565b82525050565b600081519050919050565b600082825260208201905092915050565b60005b83811015610b15578082015181840152602081019050610afa565b83811115610b24576000848401525b50505050565b6000601f19601f8301169050919050565b6000610b4682610adb565b610b508185610ae6565b9350610b60818560208601610af7565b610b6981610b2a565b840191505092915050565b6000608082019050610b896000830187610abd565b610b966020830186610acc565b8181036040830152610ba88185610b3b565b9050610bb76060830184610acc565b95945050505050565b610bc981610aab565b8114610bd457600080fd5b50565b600081359050610be681610bc0565b92915050565b600060208284031215610c0257610c01610a1e565b5b6000610c1084828501610bd7565b91505092915050565b6000602082019050610c2e6000830184610abd565b92915050565b600080fd5b600080fd5b7f4e487b7100000000000000000000000000000000000000000000000000000000600052604160045260246000fd5b610c7682610b2a565b810181811067ffffffffffffffff82111715610c9557610c94610c3e565b5b80604052505050565b6000610ca8610a14565b9050610cb48282610c6d565b919050565b600067ffffffffffffffff821115610cd457610cd3610c3e565b5b610cdd82610b2a565b9050602081019050919050565b82818337600083830152505050565b6000610d0c610d0784610cb9565b610c9e565b905082815260208101848484011115610d2857610d27610c39565b5b610d33848285610cea565b509392505050565b600082601f830112610d5057610d4f610c34565b5b8135610d60848260208601610cf9565b91505092915050565b600060208284031215610d7f57610d7e610a1e565b5b600082013567ffffffffffffffff811115610d9d57610d9c610a23565b5b610da984828501610d3b565b91505092915050565b6000604082019050610dc76000830185610abd565b610dd46020830184610acc565b9392505050565b6000602082019050610df06000830184610acc565b92915050565b7f4e487b7100000000000000000000000000000000000000000000000000000000600052602260045260246000fd5b60006002820490506001821680610e3d57607f821691505b60208210811415610e5157610e50610df6565b5b50919050565b7f596f752061726520616c7265616479206120706f6c6c65720000000000000000600082015250565b6000610e8d601883610ae6565b9150610e9882610e57565b602082019050919050565b60006020820190508181036000830152610ebc81610e80565b9050919050565b7f596f75206861766520746f206265206120706f6c6c657220746f20637265617460008201527f65206f6e65000000000000000000000000000000000000000000000000000000602082015250565b6000610f1f602583610ae6565b9150610f2a82610ec3565b604082019050919050565b60006020820190508181036000830152610f4e81610f12565b9050919050565b600081905092915050565b6000610f6b82610adb565b610f758185610f55565b9350610f85818560208601610af7565b80840191505092915050565b6000610f9d8284610f60565b915081905092915050565b7f596f752063616e6e6f7420766f746520796f7572206f776e20706f6c6c210000600082015250565b6000610fde601e83610ae6565b9150610fe982610fa8565b602082019050919050565b6000602082019050818103600083015261100d81610fd1565b9050919050565b7f596f752063616e6e6f7420766f74652074776963652100000000000000000000600082015250565b600061104a601683610ae6565b915061105582611014565b602082019050919050565b600060208201905081810360008301526110798161103d565b9050919050565b7f4e487b7100000000000000000000000000000000000000000000000000000000600052601160045260246000fd5b60006110ba82610a28565b91507fffffffffffffffffffffffffffffffffffffffffffffffffffffffffffffffff8214156110ed576110ec611080565b5b60018201905091905056fea2646970667358221220aaddc1dacbe16c56ed410a4c01105fba7eb7ed1d908c912db5b3dfc4699869f464736f6c63430008080033",
  "devdoc": {
    "kind": "dev",
    "methods": {},
    "version": 1
  },
  "userdoc": {
    "kind": "user",
    "methods": {},
    "version": 1
  },
  "storageLayout": {
    "storage": [
      {
        "astId": 42,
        "contract": "contracts/PollingSystem.sol:PollingSystem",
        "label": "pollsArray",
        "offset": 0,
        "slot": "0",
        "type": "t_array(t_struct(Poll)30_storage)dyn_storage"
      },
      {
        "astId": 47,
        "contract": "contracts/PollingSystem.sol:PollingSystem",
        "label": "polls",
        "offset": 0,
        "slot": "1",
        "type": "t_mapping(t_string_memory_ptr,t_struct(Poll)30_storage)"
      },
      {
        "astId": 52,
        "contract": "contracts/PollingSystem.sol:PollingSystem",
        "label": "pollers",
        "offset": 0,
        "slot": "2",
        "type": "t_mapping(t_address,t_struct(Poller)33_storage)"
      },
      {
        "astId": 57,
        "contract": "contracts/PollingSystem.sol:PollingSystem",
        "label": "voters",
        "offset": 0,
        "slot": "3",
        "type": "t_mapping(t_address,t_struct(Voter)38_storage)"
      }
    ],
    "types": {
      "t_address": {
        "encoding": "inplace",
        "label": "address",
        "numberOfBytes": "20"
      },
      "t_array(t_struct(Poll)30_storage)dyn_storage": {
        "base": "t_struct(Poll)30_storage",
        "encoding": "dynamic_array",
        "label": "struct PollingSystem.Poll[]",
        "numberOfBytes": "32"
      },
      "t_mapping(t_address,t_struct(Poller)33_storage)": {
        "encoding": "mapping",
        "key": "t_address",
        "label": "mapping(address => struct PollingSystem.Poller)",
        "numberOfBytes": "32",
        "value": "t_struct(Poller)33_storage"
      },
      "t_mapping(t_address,t_struct(Voter)38_storage)": {
        "encoding": "mapping",
        "key": "t_address",
        "label": "mapping(address => struct PollingSystem.Voter)",
        "numberOfBytes": "32",
        "value": "t_struct(Voter)38_storage"
      },
      "t_mapping(t_string_memory_ptr,t_struct(Poll)30_storage)": {
        "encoding": "mapping",
        "key": "t_string_memory_ptr",
        "label": "mapping(string => struct PollingSystem.Poll)",
        "numberOfBytes": "32",
        "value": "t_struct(Poll)30_storage"
      },
      "t_string_memory_ptr": {
        "encoding": "bytes",
        "label": "string",
        "numberOfBytes": "32"
      },
      "t_string_storage": {
        "encoding": "bytes",
        "label": "string",
        "numberOfBytes": "32"
      },
      "t_struct(Poll)30_storage": {
        "encoding": "inplace",
        "label": "struct PollingSystem.Poll",
        "members": [
          {
            "astId": 23,
            "contract": "contracts/PollingSystem.sol:PollingSystem",
            "label": "pollCreator",
            "offset": 0,
            "slot": "0",
            "type": "t_address"
          },
          {
            "astId": 25,
            "contract": "contracts/PollingSystem.sol:PollingSystem",
            "label": "votes",
            "offset": 0,
            "slot": "1",
            "type": "t_uint256"
          },
          {
            "astId": 27,
            "contract": "contracts/PollingSystem.sol:PollingSystem",
            "label": "idea",
            "offset": 0,
            "slot": "2",
            "type": "t_string_storage"
          },
          {
            "astId": 29,
            "contract": "contracts/PollingSystem.sol:PollingSystem",
            "label": "pollID",
            "offset": 0,
            "slot": "3",
            "type": "t_uint256"
          }
        ],
        "numberOfBytes": "128"
      },
      "t_struct(Poller)33_storage": {
        "encoding": "inplace",
        "label": "struct PollingSystem.Poller",
        "members": [
          {
            "astId": 32,
            "contract": "contracts/PollingSystem.sol:PollingSystem",
            "label": "pollerAddress",
            "offset": 0,
            "slot": "0",
            "type": "t_address"
          }
        ],
        "numberOfBytes": "32"
      },
      "t_struct(Voter)38_storage": {
        "encoding": "inplace",
        "label": "struct PollingSystem.Voter",
        "members": [
          {
            "astId": 35,
            "contract": "contracts/PollingSystem.sol:PollingSystem",
            "label": "voterAddress",
            "offset": 0,
            "slot": "0",
            "type": "t_address"
          },
          {
            "astId": 37,
            "contract": "contracts/PollingSystem.sol:PollingSystem",
            "label": "timesVoted",
            "offset": 0,
            "slot": "1",
            "type": "t_uint256"
          }
        ],
        "numberOfBytes": "64"
      },
      "t_uint256": {
        "encoding": "inplace",
        "label": "uint256",
        "numberOfBytes": "32"
      }
    }
  }
}